{
  "_format": "hh-sol-artifact-1",
  "contractName": "IPTransfer",
  "sourceName": "contracts/IPTransfer.sol",
  "abi": [
    {
      "inputs": [
        {
          "internalType": "address",
          "name": "_ipRegistrationAddress",
          "type": "address"
        }
      ],
      "stateMutability": "nonpayable",
      "type": "constructor"
    },
    {
      "inputs": [],
      "name": "ipRegistration",
      "outputs": [
        {
          "internalType": "contract IPRegistration",
          "name": "",
          "type": "address"
        }
      ],
      "stateMutability": "view",
      "type": "function"
    },
    {
      "inputs": [
        {
          "internalType": "string",
          "name": "ipfsHash",
          "type": "string"
        },
        {
          "internalType": "address",
          "name": "newOwner",
          "type": "address"
        }
      ],
      "name": "transferIPOwnership",
      "outputs": [],
      "stateMutability": "nonpayable",
      "type": "function"
    }
  ],
  "bytecode": "0x608060405234801561001057600080fd5b506040516109dc3803806109dc833981810160405281019061003291906100db565b806000806101000a81548173ffffffffffffffffffffffffffffffffffffffff021916908373ffffffffffffffffffffffffffffffffffffffff16021790555050610108565b600080fd5b600073ffffffffffffffffffffffffffffffffffffffff82169050919050565b60006100a88261007d565b9050919050565b6100b88161009d565b81146100c357600080fd5b50565b6000815190506100d5816100af565b92915050565b6000602082840312156100f1576100f0610078565b5b60006100ff848285016100c6565b91505092915050565b6108c5806101176000396000f3fe608060405234801561001057600080fd5b50600436106100365760003560e01c8063ccceb0831461003b578063f520b23814610057575b600080fd5b61005560048036038101906100509190610466565b610075565b005b61005f61028a565b60405161006c9190610521565b60405180910390f35b60008060009054906101000a900473ffffffffffffffffffffffffffffffffffffffff1673ffffffffffffffffffffffffffffffffffffffff16638b5c01cd846040518263ffffffff1660e01b81526004016100d191906105bb565b600060405180830381865afa1580156100ee573d6000803e3d6000fd5b505050506040513d6000823e3d601f19601f820116820180604052508101906101179190610722565b90503373ffffffffffffffffffffffffffffffffffffffff16816000015173ffffffffffffffffffffffffffffffffffffffff161461018b576040517f08c379a0000000000000000000000000000000000000000000000000000000008152600401610182906107dd565b60405180910390fd5b600073ffffffffffffffffffffffffffffffffffffffff168273ffffffffffffffffffffffffffffffffffffffff16036101fa576040517f08c379a00000000000000000000000000000000000000000000000000000000081526004016101f19061086f565b60405180910390fd5b60008054906101000a900473ffffffffffffffffffffffffffffffffffffffff1673ffffffffffffffffffffffffffffffffffffffff1663c7f19355846040518263ffffffff1660e01b815260040161025391906105bb565b600060405180830381600087803b15801561026d57600080fd5b505af1158015610281573d6000803e3d6000fd5b50505050505050565b60008054906101000a900473ffffffffffffffffffffffffffffffffffffffff1681565b6000604051905090565b600080fd5b600080fd5b600080fd5b600080fd5b6000601f19601f8301169050919050565b7f4e487b7100000000000000000000000000000000000000000000000000000000600052604160045260246000fd5b610315826102cc565b810181811067ffffffffffffffff82111715610334576103336102dd565b5b80604052505050565b60006103476102ae565b9050610353828261030c565b919050565b600067ffffffffffffffff821115610373576103726102dd565b5b61037c826102cc565b9050602081019050919050565b82818337600083830152505050565b60006103ab6103a684610358565b61033d565b9050828152602081018484840111156103c7576103c66102c7565b5b6103d2848285610389565b509392505050565b600082601f8301126103ef576103ee6102c2565b5b81356103ff848260208601610398565b91505092915050565b600073ffffffffffffffffffffffffffffffffffffffff82169050919050565b600061043382610408565b9050919050565b61044381610428565b811461044e57600080fd5b50565b6000813590506104608161043a565b92915050565b6000806040838503121561047d5761047c6102b8565b5b600083013567ffffffffffffffff81111561049b5761049a6102bd565b5b6104a7858286016103da565b92505060206104b885828601610451565b9150509250929050565b6000819050919050565b60006104e76104e26104dd84610408565b6104c2565b610408565b9050919050565b60006104f9826104cc565b9050919050565b600061050b826104ee565b9050919050565b61051b81610500565b82525050565b60006020820190506105366000830184610512565b92915050565b600081519050919050565b600082825260208201905092915050565b60005b8381101561057657808201518184015260208101905061055b565b60008484015250505050565b600061058d8261053c565b6105978185610547565b93506105a7818560208601610558565b6105b0816102cc565b840191505092915050565b600060208201905081810360008301526105d58184610582565b905092915050565b600080fd5b600080fd5b6000815190506105f68161043a565b92915050565b6000819050919050565b61060f816105fc565b811461061a57600080fd5b50565b60008151905061062c81610606565b92915050565b600061064561064084610358565b61033d565b905082815260208101848484011115610661576106606102c7565b5b61066c848285610558565b509392505050565b600082601f830112610689576106886102c2565b5b8151610699848260208601610632565b91505092915050565b6000606082840312156106b8576106b76105dd565b5b6106c2606061033d565b905060006106d2848285016105e7565b60008301525060206106e68482850161061d565b602083015250604082015167ffffffffffffffff81111561070a576107096105e2565b5b61071684828501610674565b60408301525092915050565b600060208284031215610738576107376102b8565b5b600082015167ffffffffffffffff811115610756576107556102bd565b5b610762848285016106a2565b91505092915050565b7f4f6e6c79207468652063757272656e74206f776e65722063616e207472616e7360008201527f6665722049500000000000000000000000000000000000000000000000000000602082015250565b60006107c7602683610547565b91506107d28261076b565b604082019050919050565b600060208201905081810360008301526107f6816107ba565b9050919050565b7f4e6577206f776e657220616464726573732063616e6e6f7420626520656d707460008201527f7900000000000000000000000000000000000000000000000000000000000000602082015250565b6000610859602183610547565b9150610864826107fd565b604082019050919050565b600060208201905081810360008301526108888161084c565b905091905056fea264697066735822122027edb50c5c6961368ddbec96e27e806c06cad023e9600a2b74ef9b51bcba819364736f6c63430008180033",
  "linkReferences": {},
  "deployedLinkReferences": {}
}