{
  "_format": "hh-sol-artifact-1",
  "contractName": "IPTransfer",
  "sourceName": "contracts/IPTransfer.sol",
  "abi": [
    {
      "inputs": [
        {
          "internalType": "address",
          "name": "_ipRegistrationAddress",
          "type": "address"
        }
      ],
      "stateMutability": "nonpayable",
      "type": "constructor"
    },
    {
      "inputs": [],
      "name": "ipRegistration",
      "outputs": [
        {
          "internalType": "contract IPRegistration",
          "name": "",
          "type": "address"
        }
      ],
      "stateMutability": "view",
      "type": "function"
    },
    {
      "inputs": [
        {
          "internalType": "string",
          "name": "ipfsHash",
          "type": "string"
        },
        {
          "internalType": "address",
          "name": "newOwner",
          "type": "address"
        }
      ],
      "name": "transferIPOwnership",
      "outputs": [],
      "stateMutability": "nonpayable",
      "type": "function"
    }
  ],
  "bytecode": "0x608060405234801561001057600080fd5b50604051610a1d380380610a1d833981810160405281019061003291906100db565b806000806101000a81548173ffffffffffffffffffffffffffffffffffffffff021916908373ffffffffffffffffffffffffffffffffffffffff16021790555050610108565b600080fd5b600073ffffffffffffffffffffffffffffffffffffffff82169050919050565b60006100a88261007d565b9050919050565b6100b88161009d565b81146100c357600080fd5b50565b6000815190506100d5816100af565b92915050565b6000602082840312156100f1576100f0610078565b5b60006100ff848285016100c6565b91505092915050565b610906806101176000396000f3fe608060405234801561001057600080fd5b50600436106100365760003560e01c8063ccceb0831461003b578063f520b23814610057575b600080fd5b61005560048036038101906100509190610468565b610075565b005b61005f61028c565b60405161006c9190610523565b60405180910390f35b60008060009054906101000a900473ffffffffffffffffffffffffffffffffffffffff1673ffffffffffffffffffffffffffffffffffffffff16638b5c01cd846040518263ffffffff1660e01b81526004016100d191906105bd565b600060405180830381865afa1580156100ee573d6000803e3d6000fd5b505050506040513d6000823e3d601f19601f820116820180604052508101906101179190610724565b90503373ffffffffffffffffffffffffffffffffffffffff16816000015173ffffffffffffffffffffffffffffffffffffffff161461018b576040517f08c379a0000000000000000000000000000000000000000000000000000000008152600401610182906107df565b60405180910390fd5b600073ffffffffffffffffffffffffffffffffffffffff168273ffffffffffffffffffffffffffffffffffffffff16036101fa576040517f08c379a00000000000000000000000000000000000000000000000000000000081526004016101f190610871565b60405180910390fd5b60008054906101000a900473ffffffffffffffffffffffffffffffffffffffff1673ffffffffffffffffffffffffffffffffffffffff1663ecef77ce84846040518363ffffffff1660e01b81526004016102559291906108a0565b600060405180830381600087803b15801561026f57600080fd5b505af1158015610283573d6000803e3d6000fd5b50505050505050565b60008054906101000a900473ffffffffffffffffffffffffffffffffffffffff1681565b6000604051905090565b600080fd5b600080fd5b600080fd5b600080fd5b6000601f19601f8301169050919050565b7f4e487b7100000000000000000000000000000000000000000000000000000000600052604160045260246000fd5b610317826102ce565b810181811067ffffffffffffffff82111715610336576103356102df565b5b80604052505050565b60006103496102b0565b9050610355828261030e565b919050565b600067ffffffffffffffff821115610375576103746102df565b5b61037e826102ce565b9050602081019050919050565b82818337600083830152505050565b60006103ad6103a88461035a565b61033f565b9050828152602081018484840111156103c9576103c86102c9565b5b6103d484828561038b565b509392505050565b600082601f8301126103f1576103f06102c4565b5b813561040184826020860161039a565b91505092915050565b600073ffffffffffffffffffffffffffffffffffffffff82169050919050565b60006104358261040a565b9050919050565b6104458161042a565b811461045057600080fd5b50565b6000813590506104628161043c565b92915050565b6000806040838503121561047f5761047e6102ba565b5b600083013567ffffffffffffffff81111561049d5761049c6102bf565b5b6104a9858286016103dc565b92505060206104ba85828601610453565b9150509250929050565b6000819050919050565b60006104e96104e46104df8461040a565b6104c4565b61040a565b9050919050565b60006104fb826104ce565b9050919050565b600061050d826104f0565b9050919050565b61051d81610502565b82525050565b60006020820190506105386000830184610514565b92915050565b600081519050919050565b600082825260208201905092915050565b60005b8381101561057857808201518184015260208101905061055d565b60008484015250505050565b600061058f8261053e565b6105998185610549565b93506105a981856020860161055a565b6105b2816102ce565b840191505092915050565b600060208201905081810360008301526105d78184610584565b905092915050565b600080fd5b600080fd5b6000815190506105f88161043c565b92915050565b6000819050919050565b610611816105fe565b811461061c57600080fd5b50565b60008151905061062e81610608565b92915050565b60006106476106428461035a565b61033f565b905082815260208101848484011115610663576106626102c9565b5b61066e84828561055a565b509392505050565b600082601f83011261068b5761068a6102c4565b5b815161069b848260208601610634565b91505092915050565b6000606082840312156106ba576106b96105df565b5b6106c4606061033f565b905060006106d4848285016105e9565b60008301525060206106e88482850161061f565b602083015250604082015167ffffffffffffffff81111561070c5761070b6105e4565b5b61071884828501610676565b60408301525092915050565b60006020828403121561073a576107396102ba565b5b600082015167ffffffffffffffff811115610758576107576102bf565b5b610764848285016106a4565b91505092915050565b7f4f6e6c79207468652063757272656e74206f776e65722063616e207472616e7360008201527f6665722049500000000000000000000000000000000000000000000000000000602082015250565b60006107c9602683610549565b91506107d48261076d565b604082019050919050565b600060208201905081810360008301526107f8816107bc565b9050919050565b7f4e6577206f776e657220616464726573732063616e6e6f7420626520656d707460008201527f7900000000000000000000000000000000000000000000000000000000000000602082015250565b600061085b602183610549565b9150610866826107ff565b604082019050919050565b6000602082019050818103600083015261088a8161084e565b9050919050565b61089a8161042a565b82525050565b600060408201905081810360008301526108ba8185610584565b90506108c96020830184610891565b939250505056fea2646970667358221220d2f16bcd94e0afecbef2397ef90bf19ad75acbc0d6832edaff193356232d36cd64736f6c63430008180033",
  "linkReferences": {},
  "deployedLinkReferences": {}
}