{
  "_format": "hh-sol-artifact-1",
  "contractName": "IPVerification",
  "sourceName": "contracts/IPVerification.sol",
  "abi": [
    {
      "inputs": [
        {
          "internalType": "address",
          "name": "_ipRegistrationAddress",
          "type": "address"
        }
      ],
      "stateMutability": "nonpayable",
      "type": "constructor"
    },
    {
      "inputs": [],
      "name": "getAllIPDetails",
      "outputs": [
        {
          "components": [
            {
              "internalType": "address",
              "name": "owner",
              "type": "address"
            },
            {
              "internalType": "uint256",
              "name": "timestamp",
              "type": "uint256"
            },
            {
              "internalType": "string",
              "name": "ipfsHash",
              "type": "string"
            }
          ],
          "internalType": "struct IPRegistration.IP[]",
          "name": "",
          "type": "tuple[]"
        }
      ],
      "stateMutability": "view",
      "type": "function"
    },
    {
      "inputs": [
        {
          "internalType": "string",
          "name": "ipfsHash",
          "type": "string"
        }
      ],
      "name": "getIPDetails",
      "outputs": [
        {
          "components": [
            {
              "internalType": "address",
              "name": "owner",
              "type": "address"
            },
            {
              "internalType": "uint256",
              "name": "timestamp",
              "type": "uint256"
            },
            {
              "internalType": "string",
              "name": "ipfsHash",
              "type": "string"
            }
          ],
          "internalType": "struct IPRegistration.IP",
          "name": "",
          "type": "tuple"
        }
      ],
      "stateMutability": "view",
      "type": "function"
    },
    {
      "inputs": [],
      "name": "ipRegistration",
      "outputs": [
        {
          "internalType": "contract IPRegistration",
          "name": "",
          "type": "address"
        }
      ],
      "stateMutability": "view",
      "type": "function"
    },
    {
      "inputs": [
        {
          "internalType": "string",
          "name": "ipfsHash",
          "type": "string"
        }
      ],
      "name": "verifyIP",
      "outputs": [
        {
          "internalType": "bool",
          "name": "",
          "type": "bool"
        }
      ],
      "stateMutability": "view",
      "type": "function"
    }
  ],
  "bytecode": "0x608060405234801561001057600080fd5b50604051610cc7380380610cc7833981810160405281019061003291906100db565b806000806101000a81548173ffffffffffffffffffffffffffffffffffffffff021916908373ffffffffffffffffffffffffffffffffffffffff16021790555050610108565b600080fd5b600073ffffffffffffffffffffffffffffffffffffffff82169050919050565b60006100a88261007d565b9050919050565b6100b88161009d565b81146100c357600080fd5b50565b6000815190506100d5816100af565b92915050565b6000602082840312156100f1576100f0610078565b5b60006100ff848285016100c6565b91505092915050565b610bb0806101176000396000f3fe608060405234801561001057600080fd5b506004361061004c5760003560e01c80630790084c146100515780635f52d50a14610081578063ade432d41461009f578063f520b238146100cf575b600080fd5b61006b600480360381019061006691906104cc565b6100ed565b604051610078919061063e565b60405180910390f35b61008961019b565b6040516100969190610772565b60405180910390f35b6100b960048036038101906100b491906104cc565b610236565b6040516100c691906107af565b60405180910390f35b6100d7610317565b6040516100e49190610829565b60405180910390f35b6100f561033b565b60008054906101000a900473ffffffffffffffffffffffffffffffffffffffff1673ffffffffffffffffffffffffffffffffffffffff16638b5c01cd836040518263ffffffff1660e01b815260040161014e919061088e565b600060405180830381865afa15801561016b573d6000803e3d6000fd5b505050506040513d6000823e3d601f19601f820116820180604052508101906101949190610a02565b9050919050565b606060008054906101000a900473ffffffffffffffffffffffffffffffffffffffff1673ffffffffffffffffffffffffffffffffffffffff1663bf9d01fb6040518163ffffffff1660e01b8152600401600060405180830381865afa158015610208573d6000803e3d6000fd5b505050506040513d6000823e3d601f19601f820116820180604052508101906102319190610b31565b905090565b60008060008054906101000a900473ffffffffffffffffffffffffffffffffffffffff1673ffffffffffffffffffffffffffffffffffffffff16638b5c01cd846040518263ffffffff1660e01b8152600401610292919061088e565b600060405180830381865afa1580156102af573d6000803e3d6000fd5b505050506040513d6000823e3d601f19601f820116820180604052508101906102d89190610a02565b9050600073ffffffffffffffffffffffffffffffffffffffff16816000015173ffffffffffffffffffffffffffffffffffffffff161415915050919050565b60008054906101000a900473ffffffffffffffffffffffffffffffffffffffff1681565b6040518060600160405280600073ffffffffffffffffffffffffffffffffffffffff16815260200160008152602001606081525090565b6000604051905090565b600080fd5b600080fd5b600080fd5b600080fd5b6000601f19601f8301169050919050565b7f4e487b7100000000000000000000000000000000000000000000000000000000600052604160045260246000fd5b6103d982610390565b810181811067ffffffffffffffff821117156103f8576103f76103a1565b5b80604052505050565b600061040b610372565b905061041782826103d0565b919050565b600067ffffffffffffffff821115610437576104366103a1565b5b61044082610390565b9050602081019050919050565b82818337600083830152505050565b600061046f61046a8461041c565b610401565b90508281526020810184848401111561048b5761048a61038b565b5b61049684828561044d565b509392505050565b600082601f8301126104b3576104b2610386565b5b81356104c384826020860161045c565b91505092915050565b6000602082840312156104e2576104e161037c565b5b600082013567ffffffffffffffff811115610500576104ff610381565b5b61050c8482850161049e565b91505092915050565b600073ffffffffffffffffffffffffffffffffffffffff82169050919050565b600061054082610515565b9050919050565b61055081610535565b82525050565b6000819050919050565b61056981610556565b82525050565b600081519050919050565b600082825260208201905092915050565b60005b838110156105a957808201518184015260208101905061058e565b60008484015250505050565b60006105c08261056f565b6105ca818561057a565b93506105da81856020860161058b565b6105e381610390565b840191505092915050565b60006060830160008301516106066000860182610547565b5060208301516106196020860182610560565b506040830151848203604086015261063182826105b5565b9150508091505092915050565b6000602082019050818103600083015261065881846105ee565b905092915050565b600081519050919050565b600082825260208201905092915050565b6000819050602082019050919050565b60006060830160008301516106a46000860182610547565b5060208301516106b76020860182610560565b50604083015184820360408601526106cf82826105b5565b9150508091505092915050565b60006106e8838361068c565b905092915050565b6000602082019050919050565b600061070882610660565b610712818561066b565b9350836020820285016107248561067c565b8060005b85811015610760578484038952815161074185826106dc565b945061074c836106f0565b925060208a01995050600181019050610728565b50829750879550505050505092915050565b6000602082019050818103600083015261078c81846106fd565b905092915050565b60008115159050919050565b6107a981610794565b82525050565b60006020820190506107c460008301846107a0565b92915050565b6000819050919050565b60006107ef6107ea6107e584610515565b6107ca565b610515565b9050919050565b6000610801826107d4565b9050919050565b6000610813826107f6565b9050919050565b61082381610808565b82525050565b600060208201905061083e600083018461081a565b92915050565b600082825260208201905092915050565b60006108608261056f565b61086a8185610844565b935061087a81856020860161058b565b61088381610390565b840191505092915050565b600060208201905081810360008301526108a88184610855565b905092915050565b600080fd5b600080fd5b6108c381610535565b81146108ce57600080fd5b50565b6000815190506108e0816108ba565b92915050565b6108ef81610556565b81146108fa57600080fd5b50565b60008151905061090c816108e6565b92915050565b60006109256109208461041c565b610401565b9050828152602081018484840111156109415761094061038b565b5b61094c84828561058b565b509392505050565b600082601f83011261096957610968610386565b5b8151610979848260208601610912565b91505092915050565b600060608284031215610998576109976108b0565b5b6109a26060610401565b905060006109b2848285016108d1565b60008301525060206109c6848285016108fd565b602083015250604082015167ffffffffffffffff8111156109ea576109e96108b5565b5b6109f684828501610954565b60408301525092915050565b600060208284031215610a1857610a1761037c565b5b600082015167ffffffffffffffff811115610a3657610a35610381565b5b610a4284828501610982565b91505092915050565b600067ffffffffffffffff821115610a6657610a656103a1565b5b602082029050602081019050919050565b600080fd5b6000610a8f610a8a84610a4b565b610401565b90508083825260208201905060208402830185811115610ab257610ab1610a77565b5b835b81811015610af957805167ffffffffffffffff811115610ad757610ad6610386565b5b808601610ae48982610982565b85526020850194505050602081019050610ab4565b5050509392505050565b600082601f830112610b1857610b17610386565b5b8151610b28848260208601610a7c565b91505092915050565b600060208284031215610b4757610b4661037c565b5b600082015167ffffffffffffffff811115610b6557610b64610381565b5b610b7184828501610b03565b9150509291505056fea2646970667358221220eba4a2f0798991ff0ed85e9a6362be4e1bda5f30a3e127ffca8808fd356e03bc64736f6c63430008180033",
  "linkReferences": {},
  "deployedLinkReferences": {}
}