{
  "_format": "hh-sol-artifact-1",
  "contractName": "IPVerification",
  "sourceName": "contracts/IPVerification.sol",
  "abi": [
    {
      "inputs": [
        {
          "internalType": "address",
          "name": "_ipRegistrationAddress",
          "type": "address"
        }
      ],
      "stateMutability": "nonpayable",
      "type": "constructor"
    },
    {
      "inputs": [],
      "name": "getAllIPDetails",
      "outputs": [
        {
          "components": [
            {
              "internalType": "address",
              "name": "owner",
              "type": "address"
            },
            {
              "internalType": "uint256",
              "name": "timestamp",
              "type": "uint256"
            },
            {
              "internalType": "string",
              "name": "ipfsHash",
              "type": "string"
            }
          ],
          "internalType": "struct IPRegistration.IP[]",
          "name": "",
          "type": "tuple[]"
        }
      ],
      "stateMutability": "view",
      "type": "function"
    },
    {
      "inputs": [
        {
          "internalType": "string",
          "name": "ipfsHash",
          "type": "string"
        }
      ],
      "name": "getIPDetails",
      "outputs": [
        {
          "components": [
            {
              "internalType": "address",
              "name": "owner",
              "type": "address"
            },
            {
              "internalType": "uint256",
              "name": "timestamp",
              "type": "uint256"
            },
            {
              "internalType": "string",
              "name": "ipfsHash",
              "type": "string"
            }
          ],
          "internalType": "struct IPRegistration.IP",
          "name": "",
          "type": "tuple"
        }
      ],
      "stateMutability": "view",
      "type": "function"
    },
    {
      "inputs": [
        {
          "internalType": "string",
          "name": "ipfsHash",
          "type": "string"
        }
      ],
      "name": "getIPOwner",
      "outputs": [
        {
          "internalType": "address",
          "name": "",
          "type": "address"
        }
      ],
      "stateMutability": "view",
      "type": "function"
    },
    {
      "inputs": [],
      "name": "ipRegistration",
      "outputs": [
        {
          "internalType": "contract IPRegistration",
          "name": "",
          "type": "address"
        }
      ],
      "stateMutability": "view",
      "type": "function"
    },
    {
      "inputs": [
        {
          "internalType": "string",
          "name": "ipfsHash",
          "type": "string"
        }
      ],
      "name": "verifyIP",
      "outputs": [
        {
          "internalType": "bool",
          "name": "",
          "type": "bool"
        }
      ],
      "stateMutability": "view",
      "type": "function"
    }
  ],
  "bytecode": "0x608060405234801561001057600080fd5b50604051610dd9380380610dd9833981810160405281019061003291906100db565b806000806101000a81548173ffffffffffffffffffffffffffffffffffffffff021916908373ffffffffffffffffffffffffffffffffffffffff16021790555050610108565b600080fd5b600073ffffffffffffffffffffffffffffffffffffffff82169050919050565b60006100a88261007d565b9050919050565b6100b88161009d565b81146100c357600080fd5b50565b6000815190506100d5816100af565b92915050565b6000602082840312156100f1576100f0610078565b5b60006100ff848285016100c6565b91505092915050565b610cc2806101176000396000f3fe608060405234801561001057600080fd5b50600436106100575760003560e01c80630790084c1461005c5780635f52d50a1461008c578063a30c058f146100aa578063ade432d4146100da578063f520b2381461010a575b600080fd5b610076600480360381019061007191906105b4565b610128565b6040516100839190610726565b60405180910390f35b6100946101d6565b6040516100a1919061085a565b60405180910390f35b6100c460048036038101906100bf91906105b4565b610271565b6040516100d1919061088b565b60405180910390f35b6100f460048036038101906100ef91906105b4565b61031e565b60405161010191906108c1565b60405180910390f35b6101126103ff565b60405161011f919061093b565b60405180910390f35b610130610423565b60008054906101000a900473ffffffffffffffffffffffffffffffffffffffff1673ffffffffffffffffffffffffffffffffffffffff16638b5c01cd836040518263ffffffff1660e01b815260040161018991906109a0565b600060405180830381865afa1580156101a6573d6000803e3d6000fd5b505050506040513d6000823e3d601f19601f820116820180604052508101906101cf9190610b14565b9050919050565b606060008054906101000a900473ffffffffffffffffffffffffffffffffffffffff1673ffffffffffffffffffffffffffffffffffffffff1663bf9d01fb6040518163ffffffff1660e01b8152600401600060405180830381865afa158015610243573d6000803e3d6000fd5b505050506040513d6000823e3d601f19601f8201168201806040525081019061026c9190610c43565b905090565b60008060009054906101000a900473ffffffffffffffffffffffffffffffffffffffff1673ffffffffffffffffffffffffffffffffffffffff16638b5c01cd836040518263ffffffff1660e01b81526004016102cd91906109a0565b600060405180830381865afa1580156102ea573d6000803e3d6000fd5b505050506040513d6000823e3d601f19601f820116820180604052508101906103139190610b14565b600001519050919050565b60008060008054906101000a900473ffffffffffffffffffffffffffffffffffffffff1673ffffffffffffffffffffffffffffffffffffffff16638b5c01cd846040518263ffffffff1660e01b815260040161037a91906109a0565b600060405180830381865afa158015610397573d6000803e3d6000fd5b505050506040513d6000823e3d601f19601f820116820180604052508101906103c09190610b14565b9050600073ffffffffffffffffffffffffffffffffffffffff16816000015173ffffffffffffffffffffffffffffffffffffffff161415915050919050565b60008054906101000a900473ffffffffffffffffffffffffffffffffffffffff1681565b6040518060600160405280600073ffffffffffffffffffffffffffffffffffffffff16815260200160008152602001606081525090565b6000604051905090565b600080fd5b600080fd5b600080fd5b600080fd5b6000601f19601f8301169050919050565b7f4e487b7100000000000000000000000000000000000000000000000000000000600052604160045260246000fd5b6104c182610478565b810181811067ffffffffffffffff821117156104e0576104df610489565b5b80604052505050565b60006104f361045a565b90506104ff82826104b8565b919050565b600067ffffffffffffffff82111561051f5761051e610489565b5b61052882610478565b9050602081019050919050565b82818337600083830152505050565b600061055761055284610504565b6104e9565b90508281526020810184848401111561057357610572610473565b5b61057e848285610535565b509392505050565b600082601f83011261059b5761059a61046e565b5b81356105ab848260208601610544565b91505092915050565b6000602082840312156105ca576105c9610464565b5b600082013567ffffffffffffffff8111156105e8576105e7610469565b5b6105f484828501610586565b91505092915050565b600073ffffffffffffffffffffffffffffffffffffffff82169050919050565b6000610628826105fd565b9050919050565b6106388161061d565b82525050565b6000819050919050565b6106518161063e565b82525050565b600081519050919050565b600082825260208201905092915050565b60005b83811015610691578082015181840152602081019050610676565b60008484015250505050565b60006106a882610657565b6106b28185610662565b93506106c2818560208601610673565b6106cb81610478565b840191505092915050565b60006060830160008301516106ee600086018261062f565b5060208301516107016020860182610648565b5060408301518482036040860152610719828261069d565b9150508091505092915050565b6000602082019050818103600083015261074081846106d6565b905092915050565b600081519050919050565b600082825260208201905092915050565b6000819050602082019050919050565b600060608301600083015161078c600086018261062f565b50602083015161079f6020860182610648565b50604083015184820360408601526107b7828261069d565b9150508091505092915050565b60006107d08383610774565b905092915050565b6000602082019050919050565b60006107f082610748565b6107fa8185610753565b93508360208202850161080c85610764565b8060005b85811015610848578484038952815161082985826107c4565b9450610834836107d8565b925060208a01995050600181019050610810565b50829750879550505050505092915050565b6000602082019050818103600083015261087481846107e5565b905092915050565b6108858161061d565b82525050565b60006020820190506108a0600083018461087c565b92915050565b60008115159050919050565b6108bb816108a6565b82525050565b60006020820190506108d660008301846108b2565b92915050565b6000819050919050565b60006109016108fc6108f7846105fd565b6108dc565b6105fd565b9050919050565b6000610913826108e6565b9050919050565b600061092582610908565b9050919050565b6109358161091a565b82525050565b6000602082019050610950600083018461092c565b92915050565b600082825260208201905092915050565b600061097282610657565b61097c8185610956565b935061098c818560208601610673565b61099581610478565b840191505092915050565b600060208201905081810360008301526109ba8184610967565b905092915050565b600080fd5b600080fd5b6109d58161061d565b81146109e057600080fd5b50565b6000815190506109f2816109cc565b92915050565b610a018161063e565b8114610a0c57600080fd5b50565b600081519050610a1e816109f8565b92915050565b6000610a37610a3284610504565b6104e9565b905082815260208101848484011115610a5357610a52610473565b5b610a5e848285610673565b509392505050565b600082601f830112610a7b57610a7a61046e565b5b8151610a8b848260208601610a24565b91505092915050565b600060608284031215610aaa57610aa96109c2565b5b610ab460606104e9565b90506000610ac4848285016109e3565b6000830152506020610ad884828501610a0f565b602083015250604082015167ffffffffffffffff811115610afc57610afb6109c7565b5b610b0884828501610a66565b60408301525092915050565b600060208284031215610b2a57610b29610464565b5b600082015167ffffffffffffffff811115610b4857610b47610469565b5b610b5484828501610a94565b91505092915050565b600067ffffffffffffffff821115610b7857610b77610489565b5b602082029050602081019050919050565b600080fd5b6000610ba1610b9c84610b5d565b6104e9565b90508083825260208201905060208402830185811115610bc457610bc3610b89565b5b835b81811015610c0b57805167ffffffffffffffff811115610be957610be861046e565b5b808601610bf68982610a94565b85526020850194505050602081019050610bc6565b5050509392505050565b600082601f830112610c2a57610c2961046e565b5b8151610c3a848260208601610b8e565b91505092915050565b600060208284031215610c5957610c58610464565b5b600082015167ffffffffffffffff811115610c7757610c76610469565b5b610c8384828501610c15565b9150509291505056fea26469706673582212207d80324852a085dbc8392bf6387d3402f9810f89ecdccce8337f339e93f5dfcb64736f6c63430008180033",
  "linkReferences": {},
  "deployedLinkReferences": {}
}