{
  "_format": "hh-sol-artifact-1",
  "contractName": "IPRegistration",
  "sourceName": "contracts/IPRegistration.sol",
  "abi": [
    {
      "anonymous": false,
      "inputs": [
        {
          "indexed": true,
          "internalType": "address",
          "name": "owner",
          "type": "address"
        },
        {
          "indexed": false,
          "internalType": "string",
          "name": "ipfsHash",
          "type": "string"
        }
      ],
      "name": "IPRegistered",
      "type": "event"
    },
    {
      "inputs": [],
      "name": "getAllIPs",
      "outputs": [
        {
          "components": [
            {
              "internalType": "address",
              "name": "owner",
              "type": "address"
            },
            {
              "internalType": "uint256",
              "name": "timestamp",
              "type": "uint256"
            },
            {
              "internalType": "string",
              "name": "ipfsHash",
              "type": "string"
            }
          ],
          "internalType": "struct IPRegistration.IP[]",
          "name": "",
          "type": "tuple[]"
        }
      ],
      "stateMutability": "view",
      "type": "function"
    },
    {
      "inputs": [
        {
          "internalType": "string",
          "name": "ipfsHash",
          "type": "string"
        }
      ],
      "name": "getIP",
      "outputs": [
        {
          "components": [
            {
              "internalType": "address",
              "name": "owner",
              "type": "address"
            },
            {
              "internalType": "uint256",
              "name": "timestamp",
              "type": "uint256"
            },
            {
              "internalType": "string",
              "name": "ipfsHash",
              "type": "string"
            }
          ],
          "internalType": "struct IPRegistration.IP",
          "name": "",
          "type": "tuple"
        }
      ],
      "stateMutability": "view",
      "type": "function"
    },
    {
      "inputs": [
        {
          "internalType": "string",
          "name": "ipfsHash",
          "type": "string"
        }
      ],
      "name": "registerIP",
      "outputs": [],
      "stateMutability": "nonpayable",
      "type": "function"
    },
    {
      "inputs": [
        {
          "internalType": "string",
          "name": "ipfsHash",
          "type": "string"
        },
        {
          "internalType": "address",
          "name": "newOwner",
          "type": "address"
        }
      ],
      "name": "registerIP",
      "outputs": [],
      "stateMutability": "nonpayable",
      "type": "function"
    },
    {
      "inputs": [
        {
          "internalType": "address",
          "name": "newTransferContractAddress",
          "type": "address"
        }
      ],
      "name": "setTransferContract",
      "outputs": [],
      "stateMutability": "nonpayable",
      "type": "function"
    }
  ],
  "bytecode": "0x608060405234801561001057600080fd5b50611516806100206000396000f3fe608060405234801561001057600080fd5b50600436106100575760003560e01c80638b5c01cd1461005c578063bf9d01fb1461008c578063c7f19355146100aa578063e3911c76146100c6578063ecef77ce146100e2575b600080fd5b61007660048036038101906100719190610b5e565b6100fe565b6040516100839190610cd0565b60405180910390f35b6100946102d8565b6040516100a19190610e04565b60405180910390f35b6100c460048036038101906100bf9190610b5e565b610429565b005b6100e060048036038101906100db9190610e52565b6106c2565b005b6100fc60048036038101906100f79190610e7f565b610797565b005b6101066109cd565b600073ffffffffffffffffffffffffffffffffffffffff1660008360405161012e9190610f17565b908152602001604051809103902060000160009054906101000a900473ffffffffffffffffffffffffffffffffffffffff1673ffffffffffffffffffffffffffffffffffffffff16036101b6576040517f08c379a00000000000000000000000000000000000000000000000000000000081526004016101ad90610f8b565b60405180910390fd5b6000826040516101c69190610f17565b90815260200160405180910390206040518060600160405290816000820160009054906101000a900473ffffffffffffffffffffffffffffffffffffffff1673ffffffffffffffffffffffffffffffffffffffff1673ffffffffffffffffffffffffffffffffffffffff1681526020016001820154815260200160028201805461024f90610fda565b80601f016020809104026020016040519081016040528092919081815260200182805461027b90610fda565b80156102c85780601f1061029d576101008083540402835291602001916102c8565b820191906000526020600020905b8154815290600101906020018083116102ab57829003601f168201915b5050505050815250509050919050565b60606001805480602002602001604051908101604052809291908181526020016000905b8282101561042057838290600052602060002090600302016040518060600160405290816000820160009054906101000a900473ffffffffffffffffffffffffffffffffffffffff1673ffffffffffffffffffffffffffffffffffffffff1673ffffffffffffffffffffffffffffffffffffffff1681526020016001820154815260200160028201805461038f90610fda565b80601f01602080910402602001604051908101604052809291908181526020018280546103bb90610fda565b80156104085780601f106103dd57610100808354040283529160200191610408565b820191906000526020600020905b8154815290600101906020018083116103eb57829003601f168201915b505050505081525050815260200190600101906102fc565b50505050905090565b600081511161046d576040517f08c379a000000000000000000000000000000000000000000000000000000000815260040161046490611057565b60405180910390fd5b600073ffffffffffffffffffffffffffffffffffffffff166000826040516104959190610f17565b908152602001604051809103902060000160009054906101000a900473ffffffffffffffffffffffffffffffffffffffff1673ffffffffffffffffffffffffffffffffffffffff161461051d576040517f08c379a0000000000000000000000000000000000000000000000000000000008152600401610514906110c3565b60405180910390fd5b600060405180606001604052803373ffffffffffffffffffffffffffffffffffffffff168152602001428152602001838152509050806000836040516105639190610f17565b908152602001604051809103902060008201518160000160006101000a81548173ffffffffffffffffffffffffffffffffffffffff021916908373ffffffffffffffffffffffffffffffffffffffff1602179055506020820151816001015560408201518160020190816105d7919061128f565b50905050600181908060018154018082558091505060019003906000526020600020906003020160009091909190915060008201518160000160006101000a81548173ffffffffffffffffffffffffffffffffffffffff021916908373ffffffffffffffffffffffffffffffffffffffff16021790555060208201518160010155604082015181600201908161066d919061128f565b5050503373ffffffffffffffffffffffffffffffffffffffff167f5bad4487d7b168048a56fc9dcab8014e86f128b0b713f7db167188fc05d844fa836040516106b6919061139a565b60405180910390a25050565b600073ffffffffffffffffffffffffffffffffffffffff16600260009054906101000a900473ffffffffffffffffffffffffffffffffffffffff1673ffffffffffffffffffffffffffffffffffffffff1614610753576040517f08c379a000000000000000000000000000000000000000000000000000000000815260040161074a9061142e565b60405180910390fd5b80600260006101000a81548173ffffffffffffffffffffffffffffffffffffffff021916908373ffffffffffffffffffffffffffffffffffffffff16021790555050565b600260009054906101000a900473ffffffffffffffffffffffffffffffffffffffff1673ffffffffffffffffffffffffffffffffffffffff163373ffffffffffffffffffffffffffffffffffffffff1614610827576040517f08c379a000000000000000000000000000000000000000000000000000000000815260040161081e906114c0565b60405180910390fd5b600060405180606001604052808373ffffffffffffffffffffffffffffffffffffffff1681526020014281526020018481525090508060008460405161086d9190610f17565b908152602001604051809103902060008201518160000160006101000a81548173ffffffffffffffffffffffffffffffffffffffff021916908373ffffffffffffffffffffffffffffffffffffffff1602179055506020820151816001015560408201518160020190816108e1919061128f565b50905050600181908060018154018082558091505060019003906000526020600020906003020160009091909190915060008201518160000160006101000a81548173ffffffffffffffffffffffffffffffffffffffff021916908373ffffffffffffffffffffffffffffffffffffffff160217905550602082015181600101556040820151816002019081610977919061128f565b5050503373ffffffffffffffffffffffffffffffffffffffff167f5bad4487d7b168048a56fc9dcab8014e86f128b0b713f7db167188fc05d844fa846040516109c0919061139a565b60405180910390a2505050565b6040518060600160405280600073ffffffffffffffffffffffffffffffffffffffff16815260200160008152602001606081525090565b6000604051905090565b600080fd5b600080fd5b600080fd5b600080fd5b6000601f19601f8301169050919050565b7f4e487b7100000000000000000000000000000000000000000000000000000000600052604160045260246000fd5b610a6b82610a22565b810181811067ffffffffffffffff82111715610a8a57610a89610a33565b5b80604052505050565b6000610a9d610a04565b9050610aa98282610a62565b919050565b600067ffffffffffffffff821115610ac957610ac8610a33565b5b610ad282610a22565b9050602081019050919050565b82818337600083830152505050565b6000610b01610afc84610aae565b610a93565b905082815260208101848484011115610b1d57610b1c610a1d565b5b610b28848285610adf565b509392505050565b600082601f830112610b4557610b44610a18565b5b8135610b55848260208601610aee565b91505092915050565b600060208284031215610b7457610b73610a0e565b5b600082013567ffffffffffffffff811115610b9257610b91610a13565b5b610b9e84828501610b30565b91505092915050565b600073ffffffffffffffffffffffffffffffffffffffff82169050919050565b6000610bd282610ba7565b9050919050565b610be281610bc7565b82525050565b6000819050919050565b610bfb81610be8565b82525050565b600081519050919050565b600082825260208201905092915050565b60005b83811015610c3b578082015181840152602081019050610c20565b60008484015250505050565b6000610c5282610c01565b610c5c8185610c0c565b9350610c6c818560208601610c1d565b610c7581610a22565b840191505092915050565b6000606083016000830151610c986000860182610bd9565b506020830151610cab6020860182610bf2565b5060408301518482036040860152610cc38282610c47565b9150508091505092915050565b60006020820190508181036000830152610cea8184610c80565b905092915050565b600081519050919050565b600082825260208201905092915050565b6000819050602082019050919050565b6000606083016000830151610d366000860182610bd9565b506020830151610d496020860182610bf2565b5060408301518482036040860152610d618282610c47565b9150508091505092915050565b6000610d7a8383610d1e565b905092915050565b6000602082019050919050565b6000610d9a82610cf2565b610da48185610cfd565b935083602082028501610db685610d0e565b8060005b85811015610df25784840389528151610dd38582610d6e565b9450610dde83610d82565b925060208a01995050600181019050610dba565b50829750879550505050505092915050565b60006020820190508181036000830152610e1e8184610d8f565b905092915050565b610e2f81610bc7565b8114610e3a57600080fd5b50565b600081359050610e4c81610e26565b92915050565b600060208284031215610e6857610e67610a0e565b5b6000610e7684828501610e3d565b91505092915050565b60008060408385031215610e9657610e95610a0e565b5b600083013567ffffffffffffffff811115610eb457610eb3610a13565b5b610ec085828601610b30565b9250506020610ed185828601610e3d565b9150509250929050565b600081905092915050565b6000610ef182610c01565b610efb8185610edb565b9350610f0b818560208601610c1d565b80840191505092915050565b6000610f238284610ee6565b915081905092915050565b600082825260208201905092915050565b7f4950206e6f7420666f756e640000000000000000000000000000000000000000600082015250565b6000610f75600c83610f2e565b9150610f8082610f3f565b602082019050919050565b60006020820190508181036000830152610fa481610f68565b9050919050565b7f4e487b7100000000000000000000000000000000000000000000000000000000600052602260045260246000fd5b60006002820490506001821680610ff257607f821691505b60208210810361100557611004610fab565b5b50919050565b7f4950465320686173682063616e6e6f7420626520656d70747900000000000000600082015250565b6000611041601983610f2e565b915061104c8261100b565b602082019050919050565b6000602082019050818103600083015261107081611034565b9050919050565b7f495020616c726561647920726567697374657265640000000000000000000000600082015250565b60006110ad601583610f2e565b91506110b882611077565b602082019050919050565b600060208201905081810360008301526110dc816110a0565b9050919050565b60008190508160005260206000209050919050565b60006020601f8301049050919050565b600082821b905092915050565b6000600883026111457fffffffffffffffffffffffffffffffffffffffffffffffffffffffffffffffff82611108565b61114f8683611108565b95508019841693508086168417925050509392505050565b6000819050919050565b600061118c61118761118284610be8565b611167565b610be8565b9050919050565b6000819050919050565b6111a683611171565b6111ba6111b282611193565b848454611115565b825550505050565b600090565b6111cf6111c2565b6111da81848461119d565b505050565b5b818110156111fe576111f36000826111c7565b6001810190506111e0565b5050565b601f82111561124357611214816110e3565b61121d846110f8565b8101602085101561122c578190505b611240611238856110f8565b8301826111df565b50505b505050565b600082821c905092915050565b600061126660001984600802611248565b1980831691505092915050565b600061127f8383611255565b9150826002028217905092915050565b61129882610c01565b67ffffffffffffffff8111156112b1576112b0610a33565b5b6112bb8254610fda565b6112c6828285611202565b600060209050601f8311600181146112f957600084156112e7578287015190505b6112f18582611273565b865550611359565b601f198416611307866110e3565b60005b8281101561132f5784890151825560018201915060208501945060208101905061130a565b8683101561134c5784890151611348601f891682611255565b8355505b6001600288020188555050505b505050505050565b600061136c82610c01565b6113768185610f2e565b9350611386818560208601610c1d565b61138f81610a22565b840191505092915050565b600060208201905081810360008301526113b48184611361565b905092915050565b7f4f6e6c79206f6e65207472616e7366657220636f6e74726163742063616e206260008201527f6520757365640000000000000000000000000000000000000000000000000000602082015250565b6000611418602683610f2e565b9150611423826113bc565b604082019050919050565b600060208201905081810360008301526114478161140b565b9050919050565b7f5472616e73666572206d757374206f726967696e6174652066726f6d2074726160008201527f6e7366657220636f6e7472616374000000000000000000000000000000000000602082015250565b60006114aa602e83610f2e565b91506114b58261144e565b604082019050919050565b600060208201905081810360008301526114d98161149d565b905091905056fea2646970667358221220800af8f286c350ecc5d9ae608c93eeb88fa8cf3f33104138f130299ef4b2e79064736f6c63430008180033",
  "linkReferences": {},
  "deployedLinkReferences": {}
}