{
  "_format": "hh-sol-artifact-1",
  "contractName": "IPRegistration",
  "sourceName": "contracts/IPRegistration.sol",
  "abi": [
    {
      "anonymous": false,
      "inputs": [
        {
          "indexed": true,
          "internalType": "address",
          "name": "owner",
          "type": "address"
        },
        {
          "indexed": false,
          "internalType": "string",
          "name": "ipfsHash",
          "type": "string"
        }
      ],
      "name": "IPRegistered",
      "type": "event"
    },
    {
      "inputs": [],
      "name": "getAllIPs",
      "outputs": [
        {
          "components": [
            {
              "internalType": "address",
              "name": "owner",
              "type": "address"
            },
            {
              "internalType": "uint256",
              "name": "timestamp",
              "type": "uint256"
            },
            {
              "internalType": "string",
              "name": "ipfsHash",
              "type": "string"
            }
          ],
          "internalType": "struct IPRegistration.IP[]",
          "name": "",
          "type": "tuple[]"
        }
      ],
      "stateMutability": "view",
      "type": "function"
    },
    {
      "inputs": [
        {
          "internalType": "string",
          "name": "ipfsHash",
          "type": "string"
        }
      ],
      "name": "getIP",
      "outputs": [
        {
          "components": [
            {
              "internalType": "address",
              "name": "owner",
              "type": "address"
            },
            {
              "internalType": "uint256",
              "name": "timestamp",
              "type": "uint256"
            },
            {
              "internalType": "string",
              "name": "ipfsHash",
              "type": "string"
            }
          ],
          "internalType": "struct IPRegistration.IP",
          "name": "",
          "type": "tuple"
        }
      ],
      "stateMutability": "view",
      "type": "function"
    },
    {
      "inputs": [
        {
          "internalType": "string",
          "name": "ipfsHash",
          "type": "string"
        }
      ],
      "name": "registerIP",
      "outputs": [],
      "stateMutability": "nonpayable",
      "type": "function"
    },
    {
      "inputs": [
        {
          "internalType": "address",
          "name": "newTransferContractAddress",
          "type": "address"
        }
      ],
      "name": "setTransferContract",
      "outputs": [],
      "stateMutability": "nonpayable",
      "type": "function"
    }
  ],
  "bytecode": "0x608060405234801561001057600080fd5b50611223806100206000396000f3fe608060405234801561001057600080fd5b506004361061004c5760003560e01c80638b5c01cd14610051578063bf9d01fb14610081578063c7f193551461009f578063e3911c76146100bb575b600080fd5b61006b60048036038101906100669190610959565b6100d7565b6040516100789190610acb565b60405180910390f35b6100896102b1565b6040516100969190610bff565b60405180910390f35b6100b960048036038101906100b49190610959565b610402565b005b6100d560048036038101906100d09190610c4d565b6106f3565b005b6100df6107c8565b600073ffffffffffffffffffffffffffffffffffffffff166000836040516101079190610cb6565b908152602001604051809103902060000160009054906101000a900473ffffffffffffffffffffffffffffffffffffffff1673ffffffffffffffffffffffffffffffffffffffff160361018f576040517f08c379a000000000000000000000000000000000000000000000000000000000815260040161018690610d2a565b60405180910390fd5b60008260405161019f9190610cb6565b90815260200160405180910390206040518060600160405290816000820160009054906101000a900473ffffffffffffffffffffffffffffffffffffffff1673ffffffffffffffffffffffffffffffffffffffff1673ffffffffffffffffffffffffffffffffffffffff1681526020016001820154815260200160028201805461022890610d79565b80601f016020809104026020016040519081016040528092919081815260200182805461025490610d79565b80156102a15780601f10610276576101008083540402835291602001916102a1565b820191906000526020600020905b81548152906001019060200180831161028457829003601f168201915b5050505050815250509050919050565b60606001805480602002602001604051908101604052809291908181526020016000905b828210156103f957838290600052602060002090600302016040518060600160405290816000820160009054906101000a900473ffffffffffffffffffffffffffffffffffffffff1673ffffffffffffffffffffffffffffffffffffffff1673ffffffffffffffffffffffffffffffffffffffff1681526020016001820154815260200160028201805461036890610d79565b80601f016020809104026020016040519081016040528092919081815260200182805461039490610d79565b80156103e15780601f106103b6576101008083540402835291602001916103e1565b820191906000526020600020905b8154815290600101906020018083116103c457829003601f168201915b505050505081525050815260200190600101906102d5565b50505050905090565b6000815111610446576040517f08c379a000000000000000000000000000000000000000000000000000000000815260040161043d90610df6565b60405180910390fd5b600073ffffffffffffffffffffffffffffffffffffffff1660008260405161046e9190610cb6565b908152602001604051809103902060000160009054906101000a900473ffffffffffffffffffffffffffffffffffffffff1673ffffffffffffffffffffffffffffffffffffffff16148061050f5750600260009054906101000a900473ffffffffffffffffffffffffffffffffffffffff1673ffffffffffffffffffffffffffffffffffffffff163373ffffffffffffffffffffffffffffffffffffffff16145b61054e576040517f08c379a000000000000000000000000000000000000000000000000000000000815260040161054590610e62565b60405180910390fd5b600060405180606001604052803373ffffffffffffffffffffffffffffffffffffffff168152602001428152602001838152509050806000836040516105949190610cb6565b908152602001604051809103902060008201518160000160006101000a81548173ffffffffffffffffffffffffffffffffffffffff021916908373ffffffffffffffffffffffffffffffffffffffff160217905550602082015181600101556040820151816002019081610608919061102e565b50905050600181908060018154018082558091505060019003906000526020600020906003020160009091909190915060008201518160000160006101000a81548173ffffffffffffffffffffffffffffffffffffffff021916908373ffffffffffffffffffffffffffffffffffffffff16021790555060208201518160010155604082015181600201908161069e919061102e565b5050503373ffffffffffffffffffffffffffffffffffffffff167f5bad4487d7b168048a56fc9dcab8014e86f128b0b713f7db167188fc05d844fa836040516106e79190611139565b60405180910390a25050565b600073ffffffffffffffffffffffffffffffffffffffff16600260009054906101000a900473ffffffffffffffffffffffffffffffffffffffff1673ffffffffffffffffffffffffffffffffffffffff1614610784576040517f08c379a000000000000000000000000000000000000000000000000000000000815260040161077b906111cd565b60405180910390fd5b80600260006101000a81548173ffffffffffffffffffffffffffffffffffffffff021916908373ffffffffffffffffffffffffffffffffffffffff16021790555050565b6040518060600160405280600073ffffffffffffffffffffffffffffffffffffffff16815260200160008152602001606081525090565b6000604051905090565b600080fd5b600080fd5b600080fd5b600080fd5b6000601f19601f8301169050919050565b7f4e487b7100000000000000000000000000000000000000000000000000000000600052604160045260246000fd5b6108668261081d565b810181811067ffffffffffffffff821117156108855761088461082e565b5b80604052505050565b60006108986107ff565b90506108a4828261085d565b919050565b600067ffffffffffffffff8211156108c4576108c361082e565b5b6108cd8261081d565b9050602081019050919050565b82818337600083830152505050565b60006108fc6108f7846108a9565b61088e565b90508281526020810184848401111561091857610917610818565b5b6109238482856108da565b509392505050565b600082601f8301126109405761093f610813565b5b81356109508482602086016108e9565b91505092915050565b60006020828403121561096f5761096e610809565b5b600082013567ffffffffffffffff81111561098d5761098c61080e565b5b6109998482850161092b565b91505092915050565b600073ffffffffffffffffffffffffffffffffffffffff82169050919050565b60006109cd826109a2565b9050919050565b6109dd816109c2565b82525050565b6000819050919050565b6109f6816109e3565b82525050565b600081519050919050565b600082825260208201905092915050565b60005b83811015610a36578082015181840152602081019050610a1b565b60008484015250505050565b6000610a4d826109fc565b610a578185610a07565b9350610a67818560208601610a18565b610a708161081d565b840191505092915050565b6000606083016000830151610a9360008601826109d4565b506020830151610aa660208601826109ed565b5060408301518482036040860152610abe8282610a42565b9150508091505092915050565b60006020820190508181036000830152610ae58184610a7b565b905092915050565b600081519050919050565b600082825260208201905092915050565b6000819050602082019050919050565b6000606083016000830151610b3160008601826109d4565b506020830151610b4460208601826109ed565b5060408301518482036040860152610b5c8282610a42565b9150508091505092915050565b6000610b758383610b19565b905092915050565b6000602082019050919050565b6000610b9582610aed565b610b9f8185610af8565b935083602082028501610bb185610b09565b8060005b85811015610bed5784840389528151610bce8582610b69565b9450610bd983610b7d565b925060208a01995050600181019050610bb5565b50829750879550505050505092915050565b60006020820190508181036000830152610c198184610b8a565b905092915050565b610c2a816109c2565b8114610c3557600080fd5b50565b600081359050610c4781610c21565b92915050565b600060208284031215610c6357610c62610809565b5b6000610c7184828501610c38565b91505092915050565b600081905092915050565b6000610c90826109fc565b610c9a8185610c7a565b9350610caa818560208601610a18565b80840191505092915050565b6000610cc28284610c85565b915081905092915050565b600082825260208201905092915050565b7f4950206e6f7420666f756e640000000000000000000000000000000000000000600082015250565b6000610d14600c83610ccd565b9150610d1f82610cde565b602082019050919050565b60006020820190508181036000830152610d4381610d07565b9050919050565b7f4e487b7100000000000000000000000000000000000000000000000000000000600052602260045260246000fd5b60006002820490506001821680610d9157607f821691505b602082108103610da457610da3610d4a565b5b50919050565b7f4950465320686173682063616e6e6f7420626520656d70747900000000000000600082015250565b6000610de0601983610ccd565b9150610deb82610daa565b602082019050919050565b60006020820190508181036000830152610e0f81610dd3565b9050919050565b7f495020616c726561647920726567697374657265640000000000000000000000600082015250565b6000610e4c601583610ccd565b9150610e5782610e16565b602082019050919050565b60006020820190508181036000830152610e7b81610e3f565b9050919050565b60008190508160005260206000209050919050565b60006020601f8301049050919050565b600082821b905092915050565b600060088302610ee47fffffffffffffffffffffffffffffffffffffffffffffffffffffffffffffffff82610ea7565b610eee8683610ea7565b95508019841693508086168417925050509392505050565b6000819050919050565b6000610f2b610f26610f21846109e3565b610f06565b6109e3565b9050919050565b6000819050919050565b610f4583610f10565b610f59610f5182610f32565b848454610eb4565b825550505050565b600090565b610f6e610f61565b610f79818484610f3c565b505050565b5b81811015610f9d57610f92600082610f66565b600181019050610f7f565b5050565b601f821115610fe257610fb381610e82565b610fbc84610e97565b81016020851015610fcb578190505b610fdf610fd785610e97565b830182610f7e565b50505b505050565b600082821c905092915050565b600061100560001984600802610fe7565b1980831691505092915050565b600061101e8383610ff4565b9150826002028217905092915050565b611037826109fc565b67ffffffffffffffff8111156110505761104f61082e565b5b61105a8254610d79565b611065828285610fa1565b600060209050601f8311600181146110985760008415611086578287015190505b6110908582611012565b8655506110f8565b601f1984166110a686610e82565b60005b828110156110ce578489015182556001820191506020850194506020810190506110a9565b868310156110eb57848901516110e7601f891682610ff4565b8355505b6001600288020188555050505b505050505050565b600061110b826109fc565b6111158185610ccd565b9350611125818560208601610a18565b61112e8161081d565b840191505092915050565b600060208201905081810360008301526111538184611100565b905092915050565b7f4f6e6c79206f6e65207472616e7366657220636f6e74726163742063616e206260008201527f6520757365640000000000000000000000000000000000000000000000000000602082015250565b60006111b7602683610ccd565b91506111c28261115b565b604082019050919050565b600060208201905081810360008301526111e6816111aa565b905091905056fea2646970667358221220d9e19f659e79ba703b1f3c933f806cf97fb413dd57d815ab04d69008fbf49e9464736f6c63430008180033",
  "linkReferences": {},
  "deployedLinkReferences": {}
}